:020000040800F2
:10000000A85200205D0200089F3A0008AD340008A5
:100010009D3A0008130A00088D4600080000000001
:100020000000000000000000000000009D0100082A
:10003000C50A000800000000F9010008193F000887
:10004000770200087702000877020008413B0008A9
:100050007702000877020008C70A00087702000844
:10006000CD0A0008D30A0008D90A00087702000860
:10007000770200087702000877020008770200087C
:10008000770200087702000877020008770200086C
:10009000770200087702000877020008770200085C
:1000A000770200087D420008770200087702000806
:1000B0008942000895420008A14200087702000822
:1000C000770200087702000877020008770200082C
:1000D00077020008814600087702000877020008CE
:1000E000770200087702000877020008770200080C
:1000F00077020008770200087702000877020008FC
:1001000077020008770200087702000877020008EB
:1001100077020008770200087702000877020008DB
:10012000770200087702000877020008150A000825
:1001300077020008770200087702000877020008BB
:1001400077020008770200087702000877020008AB
:10015000770200087702000877020008770200089B
:10016000770200087702000877020008770200088B
:1001700077020008770200087702000800000000FC
:100180007702000877020008DFF80CD000F054FB7B
:100190000048004715600008A85200202C4B196841
:1001A0000868B0E8F04F80F30988BFF36F8F4FF015
:1001B000000080F3118870470000000008480068C4
:1001C000006880F308884FF0000080F3148862B65E
:1001D00061B6BFF34F8FBFF36F8F00DF00BF00BF6B
:1001E00008ED00E0DFF80C00016841F470010160E7
:1001F000704700BF88ED00E0EFF30980BFF36F8F19
:10020000134B1A681EF0100F08BF20ED108A20E96A
:10021000F04F106009B44FF0500080F31188BFF325
:100220004F8FBFF36F8F07F099F94FF0000080F305
:10023000118809BC19680868B0E8F04F1EF0100F6B
:1002400008BFB0EC108A80F30988BFF36F8F704746
:1002500068000020EFF305807047000006488047E3
:1002600006480047FEE7FEE7FEE7FEE7FEE7FEE79B
:10027000FEE7FEE7FEE7FEE7D13F00088901000840
:100280002DE9F05F0546002092469B4688460646CB
:10029000814640241BE0284641464746224600F05E
:1002A00086F953465A46C01A914110D31146184652
:1002B000224600F06DF92D1A67EB01084F462246E1
:1002C0000120002100F064F917EB00094E41201EC7
:1002D000A4F10104DFDC484631462A464346BDE826
:1002E000F09F40EA01039B0703D009E008C9121FF1
:1002F00008C0042AFAD203E011F8013B00F8013BE0
:10030000521EF9D27047D2B201E000F8012B491E0B
:10031000FBD270470022F6E710B513460A460446A2
:100320001946FFF7F0FF204610BD421C10F8011BD4
:100330000029FBD1801A704730B5054600200346DE
:1003400000E05B1C934205D2EC5CC85C201A01D132
:10035000002CF6D130BD2DE9FE4F81EA030404F0F4
:10036000004421F0004100944FF0000B23F00043C3
:1003700050EA01045ED052EA03045BD0C3F30A548E
:10038000C1F30A552C44A4F2F3340194A0FB0254A7
:10039000C1F3130141F48011C3F3130343F4801339
:1003A00001FB024400FB034E840A970A44EA81548D
:1003B00047EA8357A4FB076802958D0A05FB07856A
:1003C0004FEA932C04FB0C542705029D4FEA065874
:1003D00047EA1637B5EB08056EEB070C870E920E51
:1003E00047EA811742EA8312A7FB0201B6EB0B0131
:1003F00064EB00042B0D43EA0C335E1844EB1C50F5
:10040000DA465146E7FB0201C5F313044FEA0B330A
:1004100043EA14534FEA0432019C43EA0603A4F171
:100420000C040294009CCDE900B400F0DFF803B0A6
:10043000BDE8F08F00200146F9E72DE9F04D81EA93
:10044000030404F0004B21F0004514464FF0000A6D
:1004500023F0004150EA050220D054EA01021DD0E9
:10046000C5F30A570246C5F31303C1F31300C1F3E2
:100470000A5640F4801543F48013A7EB0608101BBE
:10048000D64608F2FD3873EB050002D308F10108E7
:1004900001E092185B41B8F1000F03DA0020014639
:1004A000BDE8F08D00204FF48011064684460EE032
:1004B000171B73EB050705D3121B63EB05030643FC
:1004C0004CEA010C49084FEA300092185B4150EAAF
:1004D0000107EDD152EA030012D082EA040083EA58
:1004E0000501084305D0101BAB4106D201220023B1
:1004F00006E000224FF0004302E06FF001025310CB
:100500001AEB06004CEB085110EB0A0041EB0B0113
:10051000BDE8F04D00F05BB80EB540F233410291FA
:100520000021CDE900110A460B4600F05FF803B048
:1005300000BDC1F30A5210B5C1F3130140F2FF33FD
:1005400041F480119A4201DA002010BD40F2334399
:100550009A42A2F2334203DC524200F028F810BD66
:10056000904010BD30B50B460146002020220124EA
:1005700009E021FA02F59D4205D303FA02F5491B71
:1005800004FA02F52844151EA2F10102F1DC30BD87
:10059000202A04DB203A00FA02F100207047914043
:1005A000C2F1200320FA03F3194390407047202A38
:1005B00004DB203A21FA02F00021704721FA02F30D
:1005C000D040C2F12002914008431946704710B54F
:1005D000141E73F1000408DA401C41F10001921866
:1005E0005B411A4301D120F0010010BD2DE9F04D0F
:1005F00092469B4611B1B1FA81F202E0B0FA80F264
:1006000020329046FFF7C4FF04460F4640EA0A0036
:1006100041EA0B0153465A46084313D0114653EAA8
:10062000010019D0C8F140025046FFF7C0FF05464F
:100630000E46504659464246FFF7AAFF084305D0EA
:10064000012004E020463946BDE8F08D0020054336
:1006500046EAE0762C4337430A986305E40AA0EBA8
:1006600008000022FD0A44EA47540A3002D500205F
:100670000146E9E7010510196941DDE9084500195E
:100680006941BDE8F04DA2E72DE9FE4F804681EAC1
:100690000300C00F0C46009021F0004123F00045FC
:1006A000B8EB0200A94105D24046214690461C46BF
:1006B0000B46024623F00040104347D0270DC7F3F6
:1006C0000A00C3F30A510290401A019040286BDAE5
:1006D000C3F3130040F4801B0098924620B100231E
:1006E000D2EB030A63EB0B0B01985946C0F14002B1
:1006F0005046FFF74DFF06460D4650465946019AB3
:1007000000F0ACF810EB08006141002487EA1152B8
:1007100084EAE7731A4340D0009A62B3019A012A2F
:100720004FEA075215DC001B61EB02014FF000425B
:1007300002EA0752CDE90042001C41F58011324621
:100740002B46FFF753FF03B0BDE8F08F404621462C
:10075000F9E7001B61EB0201001C41F58013001852
:100760005B412018A2F5001747EB030140EAD57062
:10077000B6196D4111E06D084FEA360645EAC075BD
:100780004FEA0752001B61EB0201001C41F580118A
:1007900049084FEA30000019514132462B4603B058
:1007A000BDE8F04FFFF713BF00980122400000237F
:1007B000D0EB020263EBE073009821464FEAE0744D
:1007C000B8EB000061EB0401E9E783F000435BE76D
:1007D00081F0004158E7C1F30A52C1F3130140F21E
:1007E000FF3341F480119A4202DA0020014670473B
:1007F00040F233439A42A2F2334202DC5242FFF704
:10080000D6BEFFF7C5BE000030B5041E71F100046E
:1008100004DB4FF00044404264EB0101141E73F10D
:10082000000405DB1C464FF00043524263EB040317
:10083000994208BF904230BD064C074D06E0E06883
:1008400040F0010394E8070098471034AC42F6D317
:10085000FFF79EFC80A50008A0A50008202A06DB63
:10086000CB17203A41FA02F043EAE07306E041FA7E
:1008700002F3D040C2F1200291400843194670476C
:1008800070B58C1810F8015B15F0070301D110F852
:10089000013B2A1106D110F8012B03E010F8016B7F
:1008A00001F8016B5B1EF9D12B0705D40023521E02
:1008B0000DD401F8013BFAE710F8013BCB1A921C6A
:1008C00003E013F8015B01F8015B521EF9D5A14268
:1008D000D8D3002070BD0000464910B54A6822F404
:1008E00040324A604A6843681A434A6001684A686D
:1008F00022F480724A6001684A68036942EA03226E
:100900004A6001684A6822F040724A6001684A6899
:1009100083681A434A6001688A6822F400628A6028
:1009200001688A68C3681A438A60816A6FF07062DE
:10093000D14201688A6822F070628A6001688A6820
:100940000CD0836A1A438A6001688A6822F0405298
:100950008A6001688A68C36A1A4301E022F0405243
:100960008A6001688A6822F002028A6001688A68E7
:10097000037E42EA43028A6090F820100029016851
:100980004A680FD042F400624A6001684A6822F463
:1009900060424A6001684A68174C436A04EB43337B
:1009A0001A4301E022F400624A600168CA6A22F434
:1009B0007002CA620168CA6A838B104C04EB03534D
:1009C0001A43CA6201688A6822F400728A60016868
:1009D0008A6890F8303042EA43228A6001688A6867
:1009E00022F480628A6001688A68406942EA802055
:1009F000886010BD0023014000E0FFFF0000F0FF11
:100A000000F00F01000900EB800001EB4000C0B2D4
:100A10007047FEE7014800F051BB000000030020D2
:100A200001681823CAB2103AB2FBF3F2054B6FF318
:100A30000901032A9B5CC36500D9091D816508462D
:100A400070470000EC86000810B5014600208B6955
:100A50008A6A4FF0C07453B1B3F5005F15D072B11C
:100A6000012A0CD0022A0AD0032A09D104E01AB1C3
:100A7000012A06D0022A03D1C96AC90100D5012082
:100A800010BDC96AA142FAD010BD002AF7D0012AD0
:100A9000F2D0022AF3D0032AF3D010BD30B5046897
:100AA000256825F480252560046863608368402BF1
:100AB000036803D099600068C26030BD9A60006826
:100AC000C16030BD7047012000F080BD042000F0FF
:100AD0007DBD082000F07ABD102000F077BD72B611
:100AE000FEE70000002229B101291AD002291BD0FB
:100AF0004FF440720E490B6823F440730B600B688F
:100B000013430B600A6822F0F8020A600A680223A5
:100B100003EBC00002430A60086840F480300860BC
:100B200070474FF48072E5E74FF40072E2E700008F
:100B3000103C02401348016889050FD5016821F473
:100B400000710160016841F400610160016821F4F5
:100B500000610160016841F40071016001684905AC
:100B60000FD5016821F480610160016841F4805172
:100B70000160016821F480510160016841F48061E5
:100B800001607047003C024008490A6822F4407244
:100B90000A600A6842F004020A600A684FF480336F
:100BA00043EA002002430A6070470000103C024004
:100BB000064A136823F440731360136813601368C4
:100BC00043F001031360017070470000103C0240C5
:100BD000094910B50C6824F440740C600C6844F4A6
:100BE00040740C600C6844F001040C600260BFF3B8
:100BF0006F8F436010BD0000103C0240074A13682D
:100C000023F440731360136843F480731360136814
:100C100043F001031360018070470000103C024064
:100C2000074A136823F440731360136843F4007396
:100C30001360136843F00103136001607047000004
:100C4000103C024017490868C206174805D5C2691A
:100C500042F01002C26110220A600A68920605D5AD
:100C6000C26942F00802C26120220A600A68520684
:100C700005D5C26942F00402C26140220A600A68D6
:100C8000120605D5C26942F00202C26180220A60E2
:100C90000A68920705D5C26942F02002C2610220AB
:100CA000086070470C3C0240C404002070B5114934
:100CB00004460020C86100F09FFD06460E4D09E085
:100CC000601C07D024B100F097FD801BA04201D921
:100CD000032070BD2868C003F2D42868C00701D083
:100CE00001202860286810F0F200F2D0FFF7AAFF78
:100CF000012070BDC40400200C3C024078B50024E3
:100D0000009490F83C20012A19D0012280F83C2060
:100D10000A6807230568092A13D9EE680A3A02EB24
:100D2000420293409E43EE600B788A680A3B03EBD5
:100D300043039A400368DD682A43DA6010E002202A
:100D400078BD2E6902EB420293409E432E610B78E0
:100D50008A6803EB43039A4003681D692A431A61BA
:100D60004A681F23072A13D205686E6B521E02EBD6
:100D7000820293409E436E630B790A885B1E92B297
:100D800003EB83039A4003685D6B2A435A6327E0B1
:100D900005680D2A12D22E6BD21F02EB82029340FD
:100DA0009E432E630B790A88DB1F92B203EB830309
:100DB0009A4003681D6B2A431A6311E0EE6A0D3AEC
:100DC00002EB820293409E43EE620B790A880D3B50
:100DD00092B203EB83039A400368DD6A2A43DA6226
:100DE000164B0568144A9D4206D10D68122D03D199
:100DF000556845F48005556005689D4218D10B681B
:100E0000102B01D0112B13D1536843F4000353600E
:100E1000096810290CD10A490A4A0968B1FBF2F1A4
:100E200001EB8101490000E0491E00910029FBD13E
:100E300080F83C40002078BD0023014000200140A4
:100E40006400002040420F000068C06C704770B51D
:100E500004004FF0000503D0206C002610B107E01D
:100E6000012070BD204600F01DF8666484F83C60E7
:100E7000206CC00610D4206C20F4885040F0020092
:100E800020642046FFF728FD6664206C20F00200F5
:100E900040F00100206400E0012584F83C60284611
:100EA00070BD000010B586B0044614216846FFF7F7
:100EB00031FA1149206888421CD11048002102688B
:100EC00042F480720260006800F4807005900B4864
:100ED0001438026842F001020260006800F001006C
:100EE0000590202000900320CDE9010169460448C7
:100EF00000F078FB06B010BD0020014044380240ED
:100F00000000024018B50021009190F83C20012A11
:100F100007D0012280F83C2002689368DB0702D0EA
:100F200011E0022018BD936843F0010393602E4A3C
:100F30002E4B1268B2FBF3F202EB420200E0521EAB
:100F40000092002AFBD102689368DB0742D0036C51
:100F500040F20164A34343F48073036453685B0568
:100F600005D5036C23F4005343F480530364036CEE
:100F7000DB0404D5436C23F00603436400E04164C2
:100F800080F83C101A496FF022031360496800682A
:100F9000CA06184906D0884224D1816811F0405F02
:100FA00013D01FE08842F8D0134A904203D1D1F801
:100FB0000423D206F1D0114A904213D1D1F8041380
:100FC00001F01F011029E8D30CE0816841F0804155
:100FD000816007E0016C41F010010164416C41F057
:100FE00001014164002018BD6400002040420F0050
:100FF0000023014000200140002101400022014067
:101000002DE9F0410446876D00F0F6FB064694F8A2
:1010100035000025022806D08020606584F8345011
:101020000120BDE8F0812068016821F0160101600F
:101030002068416921F080014161206C08B9A06CF1
:1010400020B12068016821F0080101602068016872
:1010500021F0010101600CE000F0CEFB801B0528AF
:1010600007D920206065032084F8350084F83450C7
:10107000D7E720680068C007EED194F85C103F20E5
:101080008840B860012084F8350084F8345000208E
:10109000C7E790F83510022903D08021416501206F
:1010A0007047052180F835100068016821F00101C2
:1010B00001600020704790F8350070472DE9F84333
:1010C00004464FF00009CDF8009063484FF41651E4
:1010D000A56D0068B0FBF1F72E6894F85C1008204D
:1010E00000FA01F131420FD021680A6852070BD58E
:1010F0000A6822F004020A6094F85C108840A86034
:10110000606D40F00100606594F85C104FF00108DC
:1011100008FA01F0304208D021684969090604D56F
:10112000A860606D40F00200606594F85C100420D7
:101130008840304208D021680968890704D5A86032
:10114000606D40F00400606594F85C1010208840E9
:10115000304218D021680968090714D5A8602068B2
:101160000168490304D50068000308D5A16C07E0B5
:101170000168C90503D4016821F008010160216CF0
:1011800009B12046884794F85C10202088403042FE
:1011900031D021680968C9062DD5A86094F83500BA
:1011A00005282068016806D0490347D50068000378
:1011B0001DD4616C1CE021F01601016020684169BA
:1011C00021F080014161206C08B9A06C20B1206839
:1011D000016821F00801016094F85C103F2088400C
:1011E000A86084F8358084F83490216D1FE0E16BAD
:1011F00009B120468847606D00282BD0606DC0077C
:1012000014D0052084F835002068016821F0010120
:1012100001600098401C0090B84203D82068006824
:10122000C007F6D184F8358084F83490E16C002949
:1012300010D001B02046BDE8F04308470168C90559
:10124000D5D4016821F01001016084F8358084F85C
:101250003490CCE7BDE8F883640000202DE9F0412C
:10126000044600F0C9FA06465CB1022084F8350055
:10127000002584F834502068016821F001010160E4
:101280000DE00120BDE8F08100F0B6FA801B0528D2
:1012900005D920206065032084F83500F2E7206836
:1012A0000068C007F0D12268116820480140D4E9E5
:1012B00001031843D4E903363343184363691843E1
:1012C000A3691843E3691843236A18430843616A12
:1012D000042903D1D4E90B13194308431060206893
:1012E0004069666A20F0070130460E430127042852
:1012F0000CD1A06A0643E06A40B12046FFF7A4FB88
:1013000020B14020606584F83570BAE720684661F6
:101310002046FFF785FB94F85C203F2191408160D7
:10132000656584F835700020ACE700003F8010F060
:101330002DE9F0410446866D90F83400002501281F
:101340000DD0012084F8340094F835700020012F6E
:1013500007D084F8340002252846BDE8F081022039
:10136000FBE7022784F8357060652046FFF796FB9F
:1013700094F85C103F208840B0602068016841F01C
:1013800016010160206C20B12068016841F008015D
:1013900001602068016841F001010160DCE70000A4
:1013A0002DE9F047044622480F46017E01290AD064
:1013B0000121804601764CF250394846FFF776FC11
:1013C000020003D02FE00220BDE8F0874FF0FF308D
:1013D00038602068174D012801D0A6681CE0207CE9
:1013E0006168FFF7D1FB4846FFF760FC02462868BA
:1013F00020F00400286014E0217C3046FFF772FBE7
:101400004846FFF753FC0200286820F0FA002860E5
:1014100001D03E6005E0761CD4E902100844B042D9
:10142000EAD8FFF787FB002188F818101046CBE7B1
:10143000C4040020103C02400348016841F0004110
:101440000160002070470000103C02402DE9F04789
:101450001B4E05461446307E1F468946012808D09B
:10146000012030764CF250384046FFF71FFC18B18F
:1014700014E00220BDE8F0879DB1012D16D0022DA9
:1014800019D022463B464846FFF7A2FB4046FFF7ED
:101490000DFC0C490A6822F001020A600021317635
:1014A000E8E7E1B24846FFF783FBEFE7A1B2484621
:1014B000FFF7A4FBEAE721464846FFF7B1FBE5E763
:1014C000C4040020103C0240074900200A68002A9A
:1014D00009DA054A054B0C3A1360054B136009689D
:1014E000002900DA01207047103C024023016745C3
:1014F000AB89EFCD70B50024254D264E012812D0C2
:10150000042829D0082834D010283FD122A003F085
:10151000BFF8304601F0E4FB30684462304601F029
:101520009FFB102031E0012028601E4D0022114653
:10153000286806F0D3FC1CA003F0AAF80021286854
:1015400006F0E1FB134801F0CBFB30684462BDE8D4
:101550007040104801F084BB16A003F099F80D48C4
:1015600001F0BEFB306844620A4801F079FB0420B8
:101570000BE013A003F08CF8064801F0B1FB3068D3
:101580004462044801F06CFB0820286070BD000034
:10159000143C0140600300204B4559332049540D51
:1015A0000A000000180000204B4559302049540D16
:1015B0000A0000004B4559312049540D0A00000033
:1015C0004B4559322049540D0A000000044910B51A
:1015D0000A68024202D00860FFF78CFF10BD0000CD
:1015E000143C01402DE9F84FDFF8BCA10022012591
:1015F00003264FF00F090AF1040BAAF1040E00BFF5
:101600000B6805FA02F42340A34270D10F7907F06A
:101610000307012F01D0022F16D187684FEA420835
:1016200006FA08FC27EA0C07D1F80CC00CFA08FCF3
:101630004CEA070CC0F808C04768A7430C79C4F30C
:10164000001494403C4344600C79E443A4070AD05E
:10165000C4684FEA420C06FA0CF7BC438F6807FADD
:101660000CF72743C7600C7904F00304022C12D155
:10167000D40800EB840CDCF820405707FF0E09FA71
:1016800007F824EA0804D1F8108008FA07F848EAB5
:101690000408CCF8208004684FEA420C06FA0CF7E4
:1016A000BC430F7907F0030707FA0CF727430760DD
:1016B0004C6814F4403F70D03C4C276847F4804796
:1016C0002760246822F0030704F480440094384C17
:1016D00007EB040CDCF8084897074FEA177809FA7B
:1016E00008F7BC43334FB84202D1002724E054E04E
:1016F000314FB84201D101271EE0304FB84201D12D
:10170000022719E02E4FB84201D1032714E02D4FD4
:10171000B84201D104270FE02B4FB84201D1052771
:101720000AE02A4FB84201D1062705E0284FB84207
:1017300001D1072700E0082707FA08F72743CCF86C
:101740000878DAF800405746D1F804C09C435FEAB5
:10175000CC2C00D51C433C60DBF800405F46D1F840
:1017600004C09C435FEA8C2C00D51C433C60DEF82F
:1017700000407746D1F804C09C435FEA8C3C00D51A
:101780001C433C60084F083F3C68D1F804C09C43B0
:101790005FEACC3C00D51C433C60521C102AFFF48D
:1017A0002FAFBDE8F88F0000083C014044380240EC
:1017B00000300140000002400004024000080240E6
:1017C000000C0240001002400014024000180240C9
:1017D000001C02400069084000D0012070474269A7
:1017E00021EA02030A4043EA0241816170470AB1DB
:1017F000816170470904FBE7014880687047000079
:1018000058000020024881680278114481607047C6
:10181000580000200B4810B5016841F400710160C8
:10182000016841F480610160016841F480710160E8
:10183000032000F09FF80F2000F006F800F050F8A9
:10184000002010BD003C024030B505461F4887B05F
:101850000024016841F004010160006806A900F05D
:101860000400009001A800F0E1F90498A8B100F08C
:10187000FDF940001649174AB0FBF1F11648491E20
:10188000026040F2E732C0E90324C0E90114846138
:1018900001F036F9040003D015E000F0E7F9E9E7BC
:1018A0000D4801F0DDF904000DD11E2000F034F8E0
:1018B000102D07D2002229461E2000F03BF80748D1
:1018C000056000E0012407B0204630BD40380240EA
:1018D00040420F00000800407C0400205C00002013
:1018E0000C4882B0016841F480410160006800F456
:1018F000804000900748001F016841F0805101605E
:101900000068002200F0805000900F21901E02B06D
:1019100000F010B844380240002809DB00F01F0234
:10192000012191404009800000F1E020C0F8001141
:1019300070470000F0B40E4B1B680C46C3F3022343
:10194000C3F10705042D00D90425191D072901D26B
:10195000002300E0DB1E012606FA05F1491E2140A6
:1019600099409E40761E16403143F0BC02F0BCBE4A
:101970000CED00E0064900F0070208684FF6FF038F
:10198000184040EA0220034A1043086070470000F4
:101990000CED00E00000FA05BFF34F8F0548016829
:1019A000054A01F4E06111430160BFF34F8F00BFAE
:1019B000FDE700000CED00E00400FA052DE9F84316
:1019C000054600684FF00109C1074FF0000601D13C
:1019D000400727D5DFF80C81C8F86860FFF70CFFD7
:1019E0000746414C05E000BFFFF706FFC01B022879
:1019F00057D820680001F7D468688101287A41EA45
:101A00000070394984310860C8F86890FFF7F4FE27
:101A1000074604E0FFF7F0FEC01B022841D820680B
:101A20000001F7D52878800752D52F48403001684B
:101A300041F08051016000682C4C00F08050009013
:101A4000206840F480702060FFF7D6FE074604E06F
:101A5000FFF7D2FEC01B022823D82068C005F7D5A7
:101A6000214C7034206810F4407020D0A98901F412
:101A7000407181421BD020681D4920F44070C1F89C
:101A800000900E6020602068C00710D0FFF7B4FE01
:101A9000064641F2883707E0FFF7AEFE801BB842EA
:101AA00002D90320BDE8F88320688007F4D5E968EF
:101AB0000D48C1F301220830032A0BD0016821F43C
:101AC000F81101602068A989C1F30B010843206067
:101AD0000020E7E70268074B22F4F81219400A4396
:101AE0000260EFE70000474200380240007000400B
:101AF000400E4742FFFCFF0F2DE9F0470E46050060
:101B000065D0DFF81481D8F80000F7B200F00700C4
:101B1000B04207D288F80070D8F8000000F0070043
:101B2000B04254D128683D4C810712D5400703D5F7
:101B3000206840F4E05020602878000703D5206832
:101B400040F4604020602068A96820F0F00008435D
:101B500020602878C0072DD03049686808390128EE
:101B600012D0022813D0032811D009688907002950
:101B70002DDA216821F0030101432160FFF73CFECB
:101B8000814641F2883A0EE009688903EFE7096867
:101B90008901ECE7FFF730FEA0EB0901514502D9BE
:101BA0000320BDE8F0872068696800F00C00B0EB06
:101BB000810FEFD1D8F80010404601F00701B14283
:101BC00007D90770006800F00700B04201D001207B
:101BD000E7E72878400705D52068E96820F4E05059
:101BE000084320602878000706D52068296920F47A
:101BF000604040EAC100206000F058F82168084ABF
:101C0000C1F30311515CC8400649086006480068EA
:101C1000FFF71AFE0020C4E7003C024008380240EB
:101C2000F4860008640000205C0000200F2202609F
:101C30000C4A136803F003034360136803F0F003D6
:101C40008360136803F4E053C36012684FF4E053F9
:101C500003EAD20202610448006800F0070008604D
:101C60007047000008380240003C02400448054923
:101C700000680968044AC1F38221515CC84070477A
:101C80006400002008380240048700080448054921
:101C900000680968044AC1F34231515CC84070478A
:101CA000640000200838024004870008154810B579
:101CB000006810F00C02144813D04110042A0FD011
:101CC000082A0ED10F4C241F2268236802F03F021D
:101CD0005B0207D52068C0F38810A0FB010106E075
:101CE000084610BD2168C1F38811A1FB0001002343
:101CF000FEF7C6FA2168C1F30141491C4900B0FB57
:101D0000F1F010BD083802400024F4002DE9F84F2E
:101D100004006ED02078DFF84C93C007A9F10405C9
:101D20004AD009F104000168C1F38101012908D0FA
:101D30000068C0F3810002280AD1D9F800004002EF
:101D400006D52868800337D560680028E1D033E0E5
:101D50006068B0F5803F10D0B0F5A02F286810D093
:101D600020F480302860286820F480202860606893
:101D7000A8B1FFF741FD06460DE0286840F4803029
:101D8000F4E740F480202860F7E700BFFFF734FD58
:101D9000801B642873D828688003F7D50CE0FFF710
:101DA0002BFD064605E000BFFFF726FD801B6428DB
:101DB000F0D828688003F7D42078DFF8AC82800759
:101DC0004FF0000A3ED5A748001D016811F00C0F26
:101DD00008D00068C0F3810002280BD1D9F80000B8
:101DE000400207D42868800716D5E068012800D192
:101DF00012E033E1E068B8B10120C8F80000FFF755
:101E0000FBFC064605E000BFFFF7F6FC801B02283E
:101E1000C0D828688007F7D52868216920F0F80025
:101E200040EAC10028600DE0C8F800A0FFF7E4FC1C
:101E3000064604E0FFF7E0FC801B02281FD8286854
:101E40008007F7D42078000722D5864F874861693C
:101E5000703771B101210160FFF7CEFC064604E046
:101E6000FFF7CAFC801B022809D838688007F7D51D
:101E70000EE0C0F800A0FFF7BFFC064605E082E0D8
:101E8000FFF7BAFC801B02287DD838688007F7D49A
:101E90002078400768D5DFF8CCB100270BF13C0B68
:101EA000DBF80000C0000BD4DBF8001041F08051DB
:101EB000CBF80010DBF80000012700F08050009004
:101EC0006B4E3068C00510D4306840F480703060CC
:101ED000FFF792FC009005E0FFF78EFC0099401A96
:101EE000022850D83068C005F6D55E4EA0686C3622
:101EF00001280FD00528306810D020F00100306094
:101F0000306820F004003060A068B8B1FFF774FCBE
:101F100000900FE0306840F00100F4E740F004006A
:101F20003060F7E7FFF768FC0099411A41F288300A
:101F3000814266D830688007F4D50EE0FFF75CFC7C
:101F4000009007E0FFF758FC0099411A41F28830F1
:101F5000814256D830688007F4D42FB1DBF80010E6
:101F600021F08051CBF80010A069C8B33D49091D8C
:101F70000968C1F3810102294AD00228504607D0DE
:101F8000C8F8600000E03CE0FFF736FC04463BE0A8
:101F90004746C8F86000FFF72FFC064605E000BF83
:101FA000FFF72AFC801B02282BD828688001F7D471
:101FB000D4E907010843A16A2E4A490802EB01410E
:101FC000626A41EA8211084394F82C1040EA0161E8
:101FD000C9F8001001203866FFF70EFC044606E041
:101FE0003EE000BFFFF708FC001B022809D8286864
:101FF0008001F7D534E000BFFFF7FEFB001B02288D
:1020000002D90320BDE8F88F28688001F4D427E0C6
:102010000128F7D0D9F80000E26900F4800191426C
:102020001CD1226A00F03F01914217D147F6C071DE
:10203000626A0140B1EB821F10D1A26A4FF0FF33F8
:1020400000F4403103EB5202B1EB024F06D194F899
:102050002C1000F07060B0EB016F01D00120D1E7CF
:102060000020CFE70438024000004742800E47427C
:10207000007000400000FFFF2DE9F8478A4639490B
:102080004FF4FA4C91460F684FF47A72B7FBFCF1AB
:1020900051430091017F012962D00125057702217A
:1020A00041770268CA215162026853215162016876
:1020B0008A684FF0000352054FF0FF044FF003060B
:1020C00008D5009AB2F10108CDF8008018D3CA688B
:1020D0005207F6D48A6822F480628A600168CA686E
:1020E00002F0800262F49062CA60B7FBFCF14FF428
:1020F0007A72514300910168009A571E009705D2E9
:102100004C62467703770320BDE8F887CA68520718
:10211000F2D58A6822F007028A6001688A6842EA7A
:1021200009028A600268C2F814A00F490A6842F4E2
:1021300080020A600C4908310A6842F480020A6091
:1021400001688A6842F480428A6001688A6842F4C1
:1021500080628A6001684C62457703770020D3E78C
:102160000220D1E764000020003C014010B5006867
:10217000C16849051BD5C16801F0800161F4906117
:10218000C1600B4800220121006805F0EDFA094802
:1021900000220121006805F0E7FA0748002201212A
:1021A000006805F0E1FA05494FF48000086010BDB1
:1021B000200000202400002028000020143C0140C2
:1021C00010B504460068C068400509D52046FFF7F1
:1021D000CDFF2068C16801F0800161F49061C160A9
:1021E00003494FF4800008600120607710BD0000B3
:1021F000143C014010B500680B4641680D48014091
:10220000080CD870C1F304245C7001F03F049C708A
:10221000C1F34231197052B901F042FCD8705878BC
:1022200001F03EFC5870987801F03AFC987000205C
:1022300010BD00003FFFFF0010B50B460168896A22
:10224000596001680969C1F30E019960006801686D
:102250000D480140C1F305401870C1F306245C70BD
:1022600001F07F049C70890DD97052B901F018FCFF
:102270001870587801F014FC5870987801F010FC30
:102280009870002010BD00007F7F7F0010B5040013
:1022900002D0607F10B106E0012010BD0020207741
:1022A000204600F039F8022060772168CA20486291
:1022B000216853204862204601F008FC30BB2068AA
:1022C0008168144A114081602168886862681043FF
:1022D000D4E904231A43104388602168E068086148
:1022E00020680169228941EA02410161204601F02A
:1022F00011FC58B921680A6C22F480220A64216812
:102300000A6CA3691A430A64012161772268FF21DC
:10231000516210BDBFFF8FFF1FB5002100910191D9
:102320000291039100680C49884214D10220009068
:10233000C00103906846FFF741FB08B1FEF7CFFBF1
:10234000064901200860002205210320FFF7F2FA68
:102350000320FFF7E1FA1FBD002800403C0E474272
:1023600070B50446007F0B46012819D00126267758
:1023700002206077B2B19878D97840EA0145587860
:102380001978000240EA413005432168CA204862BA
:10239000216853204862204601F098FBD0B122E02A
:1023A000022070BD5878C10603D500F0EF000A3056
:1023B0005870D87801F07DFB0204587801F079FB61
:1023C00042EA0022987801F074FB0243187842EA4E
:1023D0004035DAE70748054020684560204601F0AF
:1023E00099FB00B966772268FF21516200212177AD
:1023F00070BD00003FFFFF002DE9F0410446007F63
:102400000D46012823D04FF0010884F81C800220DB
:1024100060772068002780684FEA4060D2B10028CA
:1024200000DBEF70A878297840EA01466878E978FF
:10243000000240EA815006432168CA2048622168B0
:1024400053204862204601F041FBB8B12CE0022045
:10245000BDE8F081002800DBEF70287801F029FB4F
:102460000204687801F025FB42EA0022A87801F016
:1024700020FB0243E87842EA8056DDE70D4806403B
:10248000206806602068816821F480218160D5E998
:102490000301084321688A6810438860204601F0E0
:1024A00039FB08B984F81D802268FF215162277723
:1024B000CEE700007F7F7F0070B504460068C168EA
:1024C00021F0A001C160FFF797F905464FF47A7635
:1024D00007E000BFFFF790F9401BB04201D903208D
:1024E00070BD2068C0688006F4D5002070BD7047BC
:1024F00090F85100704770B5040009D0606A00255B
:1025000040B125616561A56294F8510040B10CE0CD
:10251000012070BD6068B0F5827FF4D0E561F2E71C
:1025200084F85050204600F045F8022084F851000D
:102530002068016821F040010160A088218900F431
:10254000827001F404410843A18901F40061084349
:10255000217C01F002010843217D01F001010843C3
:10256000218B01F400710843217F01F038010843F9
:1025700094F8201001F080010843218D01F40051EE
:10258000084321680860A069042101EA104094F81A
:10259000241001F010010843216848602068C169D7
:1025A00021F40061C1616565012084F851000020BB
:1025B00070BD00002DE9F04387B00646142168463F
:1025C000FDF7A8FE2849306888424AD127480025EF
:1025D000016841F4805101600068244900F4805092
:1025E00014390590086840F001000860086800F0A0
:1025F00001000590086840F00200086008684FF08C
:10260000400900F002004FF00508CDF80090CDE938
:10261000048001AA0224032782E8B0006946144816
:10262000FEF7E0FF28208DE8B10169461148FEF76A
:10263000D9FF124C104820607806C4E901094FF414
:102640008060C4E9035065618001A561C4E9075059
:1026500020466562FEF702FE08B1FEF740FAB46458
:10266000A66307B0BDE8F083003001404438024063
:1026700000000240000402405864024000030020B1
:10268000704770472DE9F84F044690F85000002736
:102690000A9E1D4692468B464FF0010901280ED036
:1026A000012084F85000FFF7A7F8804694F8510005
:1026B000616801280CD0B1F5827F07D102E00220C9
:1026C000BDE8F88FA16809B9042801D00227C2E04B
:1026D000BBF1000F27D0BAF1000F24D01DB394F83E
:1026E0005100042802D0052084F8510000206065C4
:1026F000C4F838A0E587A587C4F830B0E586A5867C
:102700002064606420680168490603D4016841F0D0
:1027100040010160E068B0F5006F606805D0E8B383
:10272000012D46D07FE0012795E008B1012D39D178
:10273000206B21680088C860206B801C2063E08EBD
:10274000401EE0862EE02068816889070FD5E18E63
:1027500069B1B9F1010F0AD1216B0988C160206B01
:10276000801C2063E08E401EE0864FF00009206848
:102770008168C9070CD0E18F51B1C068A16B088096
:10278000A06B801CA063E08F401EE0874FF0010922
:10279000FFF732F8A0EB0800B04200E009E001D3F7
:1027A000701C50D1E08E0028CDD1E08F0028CAD116
:1027B0003FE0206B216800780873206B401C206389
:1027C000E08E401EE0862EE02068816889070FD5E4
:1027D000E18E69B1B9F1010F0AD1216B097801735A
:1027E000206B401C2063E08E401EE0864FF0000905
:1027F00020688168C9070CD0E18F51B1C068A16B16
:102800000870A06B401CA063E08F401EE0874FF073
:102810000109FEF7F1FFA0EB0800B04202D3701CE3
:1028200001D010E07EB1E08E0028CDD1E08F0028ED
:10283000CAD142463146204601F06AFA28B1012742
:102840002020606507E0032705E0A06818B920682C
:10285000C16880680090012084F85100002084F84D
:10286000500038462CE700002DE9F041044690F86E
:102870005000002601280DD0012784F8507094F8EC
:1028800051000025D4F804C001280FD0BCF5827F88
:102890000AD102E00220BDE8F081D4F808C0BCF102
:1028A000000F01D1042801D0022660E049B342B3F1
:1028B0003BB394F85100042802D0052084F851005D
:1028C00065652163A386E386A263A387E387256406
:1028D000656494F85100042815D0E16C264808641A
:1028E0002648E16CC863E16C2548C864E06C056566
:1028F000E38F2168A26B0C31E06CFEF719FDE0B9A3
:1029000006E0012633E0E16C1E4808641E48E8E753
:102910002068416841F001014160A06C0564A06C31
:10292000C563A06CC564A06C0565E38E2268216B4D
:102930000C32A06CFEF7FCFC38B1606D40F010006A
:102940006065012684F8517011E02068016849062D
:1029500003D4016841F0400101602068416841F002
:10296000200141602068416841F00201416084F823
:10297000505030468FE70000833B00085B3C000866
:102980004D3B00086F3B00088D3B00082DE9F041EE
:10299000044690F850000026012809D0012784F849
:1029A000507094F851000025012804D002264EE012
:1029B0000220BDE8F08189B182B1032084F8510082
:1029C00065652163A286E286A56365642564A587A3
:1029D000E587A068B0F5004F02D00BE0012636E095
:1029E0002068016821F0400101602068016841F41D
:1029F00080410160A16C18480864A16C1748C86345
:102A0000A16C1748C864A06C0565E38E2268216B31
:102A10000C32A06CFEF78CFC38B1606D40F01000F9
:102A20006065012684F8517011E02068016849064C
:102A300003D4016841F0400101602068416841F021
:102A4000200141602068416841F00201416084F842
:102A500050503046ADE70000793B0008F73B0008D6
:102A60004D3B00087047704770477047704770478C
:102A700070B590F83C20012A32D0012480F83C4007
:102A8000022280F83D2003685A689D6822F0700693
:102A90000A6832435A60134B02689A4214D0B2F16A
:102AA000804F11D0104B9A420ED0104B9A420BD04F
:102AB0000F4B9A4208D00F4B9A4205D00E4B9A42C8
:102AC00002D00E4B9A4204D1496825F08003194385
:102AD000916080F83D40002180F83C10084670BDB0
:102AE000022070BD000001400004004000080040CA
:102AF000000C00400004014000400140001800406C
:102B000010B5040003D094F83D0010B107E0012097
:102B100010BD002084F83C00204600F01FF8022081
:102B200084F83D00211D206801F0C0FB012084F8DD
:102B3000460084F83E0084F83F0084F8400084F8A2
:102B4000410084F8420084F8430084F8440084F88B
:102B5000450084F83D00002010BD000008B5016864
:102B60001E4881420FD11E48016841F001010160F9
:102B70000068002200F00100009006211920FEF7F5
:102B8000D9FE192015E01648001FB1F1804F14D06E
:102B9000144A914220D1016841F0020101600068AD
:102BA000002200F0020000900F211D20FEF7C2FE5F
:102BB0001D20BDE80840FEF7AFBE016841F00101ED
:102BC00001600068002200F00100009006211C2036
:102BD000FEF7B0FE1C20ECE708BD0000000001403D
:102BE000443802400004004090F83D10012901D013
:102BF00001207047022180F83D1000681149884289
:102C000014D0B0F1804F11D00F4988420ED00F4937
:102C100088420BD00E49884208D00E49884205D020
:102C20000D49884202D00D49884204D1816801F0E3
:102C30000701062903D0016841F00101016000206D
:102C40007047000000000140000400400008004000
:102C5000000C00400004014000400140001800400A
:102C600090F83D10012901D001207047022180F821
:102C70003D100168CA6842F00102CA60006811494B
:102C8000884214D0B0F1804F11D00F4988420ED045
:102C90000E4988420BD00E49884208D00D4988421F
:102CA00005D00D49884202D00C49884204D1816880
:102CB00001F00701062903D0016841F0010101601C
:102CC0000020704700000140000400400008004060
:102CD000000C00400004014000400140001800408A
:102CE0000168CA6822F00102CA6001680A6A41F2FA
:102CF00011131A4207D10A6A9B101A4203D10A68BB
:102D000022F001020A60012180F83D100020704786
:102D100070B5044690F83C000025012817D0012624
:102D200084F83C60022084F83D002068826822F02C
:102D3000770222F47F4282600868502838D00DDC88
:102D400020284FD005DC90B3102811D14AE0022092
:102D500070BD302846D040280AD13BE060282FD0F3
:102D600070280DD0B0F5805F03D0B0F5005F12D0B1
:102D7000012584F83D60002084F83C00284670BDA1
:102D8000CB68D1E90121206801F0F4FA206881685C
:102D900041F0770109E0CB68D1E90121206801F019
:102DA000E9FA2068816841F480418160E1E719E037
:102DB000CA684968206801F0EFFA5021206806E0EF
:102DC000CA684968206801F0F8FA6021206801F0BB
:102DD000DBFACEE7CA684968206801F0DDFA4021D5
:102DE0002068F4E7226801461046F0E7704770B5A6
:102DF0000446006801694FF00005C943890715D4EE
:102E0000C168C943890711D4E91E016101202077F7
:102E1000206880698007204602D0FFF7E7FF04E0C2
:102E200000F098F8204600F096F8257720680169B0
:102E3000C943490717D4C168C943490713D46FF080
:102E400004010161022020772068806910F4407F2E
:102E5000204602D0FFF7CAFF04E000F07BF82046CE
:102E600000F079F8257720680169C943090716D46D
:102E7000C168C943090712D46FF008010161042039
:102E800020772068C0698007204602D0FFF7AEFF98
:102E900004E000F05FF8204600F05DF82577206838
:102EA0000169C943C90617D4C168C943C90613D407
:102EB0006FF010010161082020772068C06910F4CC
:102EC000407F204602D0FFF791FF04E000F042F877
:102ED000204600F040F8257720680169C943C907FA
:102EE00008D1C168C943C90704D1891E01612046C0
:102EF00000F032F820680169C943090609D4C168A5
:102F0000C943090605D46FF0800101612046FFF72F
:102F1000ADFD20680169C943490609D4C168C943A8
:102F2000490605D46FF040010161204600F0BAF86F
:102F300020680169C94389060BD4C168C943890661
:102F400007D46FF0200101612046BDE87040FFF713
:102F50008EBD70BD704770472DE9F0410546006891
:102F60003A496FF00106884239D101213848FEF70D
:102F700031FC384C80B1384F04213846FEF72AFC2A
:102F8000D0B108213846FEF725FCC0B110213846E3
:102F9000FEF720FCB0B11DE0304F0022114638682A
:102FA00004F09CFF2EA001F073FB0021386804F0B0
:102FB000AAFE002202210AE00022012107E00022ED
:102FC000042104E02AA001F063FB0022082120680C
:102FD00004F0CAFB2A48FFF783FE294829E0B0F134
:102FE000804F28D127480168491C016026480168A4
:102FF000491C0160B1F57A7F1AD300210160234892
:103000000268521C02603C2A12D301602048026808
:10301000521C02603C2A0BD301601E480268521CFD
:103020000260182A04D301601B480168491C016032
:103030001A48006806611A492868884203D1BDE829
:10304000F041FEF7DFBBBDE8F08100000000014069
:10305000000002401C000020001002401800002068
:103060004B4559302070726573730D0A00000000E3
:103070004B4559332070726573730D0A00000000D0
:1030800060030020C8010020CC010020D0010020F6
:10309000D4010020D8010020DC010020A80300207A
:1030A000000800407047704770470000F8B501689D
:1030B00004460868CA684B6910F00F0F4FF000050E
:1030C0005AD003F0010602F49077374365D0C10768
:1030D00005D0D10503D5216C41F0010121644107E0
:1030E00005D5D90703D0216C41F002012164810785
:1030F00005D5D90703D0216C41F0040121640107F3
:1031000007D502F02001314303D0216C41F00801C2
:103110002164216C00293BD0800604D5900602D59D
:10312000204601F08BF920684069216CC0F38010C3
:1031300001F00801014320462BD001F058F9206826
:103140004069400621D52068143050E8001F21F066
:10315000400140E80012002AF5D1A06BA8B16C49EB
:103160000165A06BFDF795FF002811D0A06B016DE4
:1031700001B0BDE8F040084783060ED593060CD594
:103180002046BDE8F84001F059B92046FFF78CFF12
:10319000F8BDFFF789FF2564F8BD266B2023012EBB
:1031A00079D1C60677D5D60675D5086848680090E7
:1031B0004869400640D5A16B086840680004000CCF
:1031C000EAD0A28D8242E7D9E085C869B0F5807F58
:1031D0002DD020680C3050E8001F21F4807140E8A9
:1031E0000012002AF5D12068143050E8001F21F0A9
:1031F000010140E80012002AF5D12068143050E89F
:10320000001F21F0400140E80012002AF5D184F8A7
:103210003E30256320680C3050E8001F21F010017B
:1032200040E80012002AF5D1A06BFDF7E9FEA08D61
:10323000E18D401A81B229E0A08DE18D401A81B262
:10324000E08D0028A8D00029A6D020680C3050E8D6
:10325000002F22F4907240E80026002EF5D120685D
:10326000143050E8002F22F0010240E80026002E22
:10327000F5D184F83E30256320680C3050E8002FEB
:1032800022F0100240E80023002BF5D12046FFF782
:103290000AFFF8BDFFE705062BD5150629D594F8DA
:1032A0003D002128F5D1A068B0F5805F01D12069EB
:1032B000B0B1206A411C2162216800784860E08C2E
:1032C000401E0004000CE084E3D12068C16821F0B6
:1032D0008001C1602068C16841F04001C160D8E749
:1032E000206A0088C0F308004860206A801C2062C1
:1032F000E5E74006CDD55006CBD5CA68204622F07A
:103300004002CA6084F83D3000F0CFF8C1E7000009
:10331000DF43000870B5040004D094F83D00002598
:1033200010B106E0012070BD84F83C50204600F04A
:1033300023F8242084F83D002068C16821F400515E
:10334000C160204601F0DAF82068016921F490415B
:1033500001612068416921F02A0141612068C1684A
:1033600041F40051C1602564202084F83D0084F8B8
:103370003E00002070BD000010B586B00446142148
:103380006846FCF7C7FF18492068884229D11748CA
:103390000021026842F010020260006800F0100094
:1033A000059012481438026842F001020260006879
:1033B00000F0010005904FF4C06000900220CDE9BC
:1033C0000101032003900720049069460848FEF796
:1033D00009F9002205212520FEF7ACFA2520FEF789
:1033E0009BFA06B010BD00000010014044380240B6
:1033F00000000240704700002DE9F843044690F8B1
:103400003D001F4616460D4620284CD1C5B1BEB121
:1034100094F83C00012846D0012084F83C004FF08D
:103420000008C4F84080212084F83D00FEF7E4F94C
:10343000A6848146E684A068B0F5805F03D004E0EE
:103440000120BDE8F883206928B12E465FF0000511
:1034500084F83C800EE00026FAE78021204601F047
:10346000D3F8A0B9AEB116F8010B21684860E08C22
:10347000401EE084E08C4B464FF00002009700288D
:10348000EBD14FF04001204601F0BEF830B10320EF
:10349000D7E735F8020BC0F30800E6E7202084F8F0
:1034A0003D000020CDE70220CBE77047FEE700009B
:1034B0007FB50024164800940194029413490394A4
:1034C00001604FF48031C0E90114012504610576E3
:1034D00080F820400F49C0E90A14C561C46080F833
:1034E00030404461FDF7B3FC08B1FDF7F8FA052060
:1034F000CDE90005694602940548FDF7FFFB08B1D8
:10350000FDF7EDFA0248FDF7FDFC7FBD002001400C
:103510002C0200200100000F094808B5016841F4A1
:10352000800101600068002200F480000090052105
:103530003B20FEF7FFF9BDE808403B20FEF7ECB961
:10354000303802401CB5012004F02AFA1A4C00223F
:103550000121A061052004F02EFA20630022012140
:10356000052004F028FA606300221E210A2004F0DE
:1035700022FAA063114A0021114802F007FFE0631C
:103580000020211DCDE9000103464FF400720DA17A
:10359000124804F0E7FD04F093F8E06104F090F8BD
:1035A000206204F08DF8606204F08AF8A06204F0F2
:1035B00087F8E0621CBD00000000002020860008A3
:1035C000F93E00086170705F7461736B5F6D6F64CA
:1035D000756C655F696E697400000000A95400088D
:1035E0002DE9F04F87B014216846FCF793FE874819
:1035F0000025016841F010010160016801F010012F
:103600000591016841F004010160016801F00401C5
:103610000591016841F020010160016801F020017D
:103620000591016841F080010160016801F08001AD
:103630000591016841F001010160016801F001019B
:103640000591016841F040010160016801F040010D
:103650000591016841F0020101600068DFF8B0B136
:1036600000F002000590012246F240015846FEF7A4
:10367000BEF84FF48076002231466648FEF7B7F870
:103680004FF4C06A012251466248FEF7B0F80022AA
:1036900040216148FEF7ABF801224FF440715E48CB
:1036A000FEF7A5F8012231465C48FEF7A0F801229A
:1036B000570239465A48FEF79AF8012240215948E4
:1036C000FEF795F81C204FF40418CDE90008694670
:1036D00002955846FDF786FF01244FF04009CDE9D9
:1036E00000940294694658460394FDF77BFF0096C8
:1036F000CDE90145694647480394FDF773FFCDF8CE
:1037000000A0CDE90145694642480395FDF76AFFEF
:10371000CDE90048694641480295FDF763FF102056
:10372000CDE90005694602943C48FDF75BFF4FF484
:10373000C0408DE83100694658460395FDF752FFB9
:103740004FF4A0708DE83100694633480395FDF7CA
:1037500049FF4FF08008CDF80080CDE9015469465B
:103760002D48FDF73FFFCDE90074029469462A48D1
:103770000394FDF737FFCDE90064029469462748BA
:103780000394FDF72FFF0097CDE9014569462448D2
:103790000395FDF727FFE003CDE900056946029494
:1037A0001F48FDF71FFFCDE90094029469461D48AC
:1037B0000394FDF717FFCDF80080CDE90154694669
:1037C0001848FDF70FFF062100220846FEF7B2F861
:1037D0000620FEF7A1F8002206210820FEF7AAF82D
:1037E0000820FEF799F8002206210920FEF7A2F82A
:1037F0000920FEF791F8002206210A20FEF79AF828
:103800000A20FEF789F807B0BDE8F08F3038024093
:103810000010024000140240000802400000024074
:10382000001802400004024010B586B0142168461A
:10383000FCF770FD2248002420490594C0E90014DB
:103840007F218160FF21C0E9031444618461FEF798
:103850001DFD08B1FDF743F902208DF8000012208C
:103860008DF801008DF80240039401226946144846
:103870000494FEF7C1FD08B1FDF731F906208DF87B
:10388000140007208DF8150028208DF8160024203C
:103890008DF81700012205A90948FEF761FD08B15E
:1038A000FDF71DF9042200210548FEF7E5FB00287D
:1038B00001D0FDF714F906B010BD0000002800404B
:1038C00088020020104810B50E4901604FF4827143
:1038D0004160002102228160C0E90312012242619D
:1038E0005202C0E906210162416281620A21C1627D
:1038F000FEF701FE002803D0BDE81040FDF7EFB849
:1039000010BD000000300140A802002030B587B093
:1039100000241A4D009401940294039404941648D0
:103920000594286040F20770C5E901040920C5E943
:1039300003046C612846AC61FFF7E2F808B1FDF7BB
:10394000CEF84FF48050009069460C48FFF7E0F93C
:1039500008B1FDF7C4F8049404A908480594FFF7DA
:1039600087F808B1FDF7BBF82868C16841F001018C
:10397000C16007B030BD00000000014060030020BE
:1039800030B587B000241B4D009401940294039439
:1039900004944FF080400594286044F29F10C5E9DC
:1039A00001040920C5E903048020A8612846FFF727
:1039B000A7F808B1FDF793F84FF4805000906946DE
:1039C0000C48FFF7A5F908B1FDF789F8049404A99C
:1039D00008480594FFF74CF808B1FDF780F828680F
:1039E000C16841F00101C1600248FFF7FDF807B06E
:1039F00030BD0000A803002010B586B00024184890
:103A00000094019402940394049414490594016071
:103A100042F2CF01C0E9011442F20F71C0E9031470
:103A200080218161FFF76CF808B1FDF758F84FF479
:103A30008050009069460A48FFF76AF908B1FDF71F
:103A40004EF8049404A906480594FFF711F80028DD
:103A500001D0FDF744F806B010BD0000000400409E
:103A6000F00300200C4810B50A4901604FF4E13121
:103A70004160002181600C22C160C0E904128161B3
:103A8000C161FFF747FC002803D0BDE81040FDF7F7
:103A900026B810BD0010014038040020FEE7FEE704
:103AA000010901EB810100F00F0000EB4100C0B201
:103AB0007047002103E0491C0A38C9B2C0B20A2885
:103AC000F9D2090740EA1160704700002DE9F04182
:103AD000044600680025C168490618D4C16841F051
:103AE0008001C160FDF788FE06464FF47A7804270E
:103AF00007E000BFFDF780FE801B404501D96777D6
:103B000001252068C068400601D4002DF2D0284667
:103B1000BDE8F08170B5044600680025C16821F059
:103B20008001C16020688068800606D42046FEF7C8
:103B3000C3FC10B1042060770125284670BD000049
:103B40000148FEF73DBB00008802002010B5806BE5
:103B500001684A6822F003024A60416D41F0100199
:103B60004165012180F85110FEF7C1FC10BD10B570
:103B7000806BFEF786FD10BD10B5806BFEF773FFFE
:103B800010BD10B5806BFEF770FF10BD70B5054617
:103B9000846BFDF731FE024628680068C00526D414
:103BA0002068416821F020014160A06818B9606870
:103BB000B0F5827F16D02068416821F00101416094
:103BC0006421204600F076F808B1202060650020CE
:103BD000E087012084F85100606D40B12046FEF777
:103BE00086FC70BD2068416821F00301E7E72046AC
:103BF000FEF746FD70BD38B50546846BFDF7FCFD4C
:103C0000024628680068C00523D42068416821F076
:103C1000200141602068416821F002014160642177
:103C2000204600F075F818B1606D40F02000606526
:103C3000A068002118B92068C26880680090E186F9
:103C4000012084F85100606D18B12046FEF74FFC4A
:103C500038BD2046FEF706FF38BD70B50546846BBB
:103C6000FDF7CAFD024628680068C0051ED420681A
:103C7000416821F0200141606421204600F048F8AD
:103C800018B1606D40F0200060652068416821F047
:103C9000030141600020E086E087012084F85100A4
:103CA000606D18B12046FEF722FC70BD2046FEF77D
:103CB000DBFE70BDF8B5044640684FF4827398424D
:103CC00021D1A0684FF48065B0F5004F01D0A84223
:103CD0000AD12068066826F04006066060689842AF
:103CE00011D1A068A8420ED000920B46002280217C
:103CF000204600F055F8002804D0606D40F0200008
:103D000060650320F8BD00920B4600220121EFE719
:103D100038B504461248134B0068B0FBF3F04FF47B
:103D20007A73584300906068B0F5827F0DD10B46DE
:103D3000009200228021204600F032F870B1606DC0
:103D400040F020006065032038BD009830B1401E6F
:103D5000009020688068C0430006F6D5002038BD7A
:103D60006400002000366E0101B582B000208DF89D
:103D700004000A48FEF7BCFB012801D0FCF7AFFEA7
:103D80004FF0FF300090012301AA02A90348FEF77B
:103D900079FC002801D0FCF7A2FE0EBDA80200208D
:103DA0002DE9F8431E46914688460446089DFDF7D6
:103DB00023FD401B351AFDF71FFD07462548006807
:103DC000C0F3CB30684338E0701C37D0FDF714FDEA
:103DD000C01BA84203D215B1009860B32CE0206844
:103DE000416821F0E00141606068B0F5827F0BD14D
:103DF000A068B0F5004F02D0B0F5806F04D1206804
:103E0000016821F040010160A06AB0F5005F09D1AE
:103E10002068016821F4005101602068016841F4C4
:103E200000510160012084F85100002084F8500006
:103E30000320BDE8F8830025401E009020688168BB
:103E400038EA010004D000214945BDD10020F0E747
:103E50000121F9E7640000201C49884201D20020BA
:103E600070471B49884201D2012070471949884296
:103E700001D2022070471849884201D203207047BE
:103E80001649884201D2042070471549884201D260
:103E9000052070471349884201D206207047124915
:103EA000884201D2072070471049884201D2082079
:103EB00070470F49884201D2092070470D49884256
:103EC00001D20A2070470B20704700000040000814
:103ED0000080000800C0000800000108000002087F
:103EE00000000408000006080000080800000A0896
:103EF00000000C0800000E08064E4FF4FA744FF450
:103F00000075204603F0FAF829463046FDF767FCB5
:103F1000F7E700000014024010B54FF0E020006900
:103F200004F078F9012803D0BDE8104003F022BD69
:103F300010BD000030B593B030216846FCF7EAF9B7
:103F400014210CA8FCF7E6F91F480025016841F090
:103F500080510160006800F0805011901B4801689A
:103F600041F4804101600068022400F48040119017
:103F7000052000904FF480300190012002908005D0
:103F8000CDE90640082008904FF4A870CDE9090457
:103F900004200B906846FDF7B9FE08B172B6FEE743
:103FA0000CA90F2081E831004FF4A0500F904FF47E
:103FB0008050109005210CA8FDF79EFD002801D02F
:103FC00072B6FEE713B030BD4038024000700040CA
:103FD0000248016841F470010160704788ED00E01B
:103FE000024A0021C2F8A012FFF7BEBE0000414203
:103FF000024A0121C2F8A012FFF7B6BE00004142FA
:104000002DE9F0472A20FFF7EBFF0020FFF7F0FF34
:104010000020FFF7EDFF0020FFF7EAFFF020FFF799
:10402000E7FF2B20FFF7DCFF0020FFF7E1FF002078
:10403000FFF7DEFF0020FFF7DBFFF020FFF7D8FFE0
:104040002C20FFF7CDFFFF2280211948FCF75BF9F8
:104050000020184DDFF8588006462880FF2781464B
:10406000002480B208F80070401C80B208F800708C
:10407000401C80B22880802807D3802200210C4871
:1040800001F00AFE4846A5F80090641CF02CE8D325
:10409000761CF02EE4D30004000C06D08022002110
:1040A000034801F0F9FDA5F80090BDE8F087000095
:1040B000B84D0020C401002010B56F4C0020C4F89A
:1040C00098020A2004F5267401F072FC0120206099
:1040D0000A2001F06DFC1120FFF782FF782001F02B
:1040E00065FC3A20FFF77CFF0520FFF781FFC52024
:1040F000FFF776FF1A20FFF77BFF3620FFF770FFF0
:104100000020FFF775FFB220FFF76AFF0520FFF7D9
:104110006FFF0520FFF76CFF0020FFF769FF3320DA
:10412000FFF766FF3320FFF763FFB720FFF758FF65
:104130000520FFF75DFFBB20FFF752FF3F20FFF791
:1041400057FFC020FFF74CFF2C20FFF751FFC22084
:10415000FFF746FF0120FFF74BFFC320FFF740FFAB
:104160000F20FFF745FFC420FFF73AFF2020FFF79D
:104170003FFFC620FFF734FF0120FFF739FFD020B3
:10418000FFF72EFFA420FFF733FFA120FFF730FF3A
:10419000E820FFF725FF0320FFF72AFFE920FFF7BC
:1041A0001FFF0920FFF724FF0920FFF721FF082048
:1041B000FFF71EFFE020FFF713FFD020FFF718FFE7
:1041C0000520FFF715FF0920FFF712FF0920FFF771
:1041D0000FFF0820FFF70CFF1420FFF709FF28202E
:1041E000FFF706FF3320FFF703FF3F20FFF700FF35
:1041F0000720FFF7FDFE1320FFF7FAFE1420FFF75C
:10420000F7FE2820FFF7F4FE3020FFF7F1FEE12053
:10421000FFF7E6FED020FFF7EBFE0520FFF7E8FEF4
:104220000920FFF7E5FE0920FFF7E2FE0820FFF76F
:10423000DFFE0320FFF7DCFE2420FFF7D9FE32204B
:10424000FFF7D6FE3220FFF7D3FE3B20FFF7D0FE6C
:104250001420FFF7CDFE1320FFF7CAFE2820FFF73A
:10426000C7FE2F20FFF7C4FE2120FFF7B9FEBDE8EF
:1042700010402920FFF7B4BE000041420148FEF77C
:10428000B6BD0000600300200148FEF7B0BD00008D
:10429000A80300200148FEF7AABD0000F00300209B
:1042A0000148FEF7A4BD00007C040020F0B50268C0
:1042B000254C264D264E274F274B4FF0804CA042D1
:1042C00009D0604507D0A84205D0B04203D0B8421B
:1042D00001D0984204D122F0700E4A6842EA0E02E0
:1042E000A0421BD0604519D0A84217D0B04215D0CB
:1042F000B84213D0984211D0184DA8420ED0184D94
:10430000A8420BD0174DA84208D0174DA84205D09F
:10431000164DA84202D0164DA84203D122F4407592
:10432000CA682A434D6922F080022A4302608A68E3
:10433000C2620A688262A04201D0984201D1096932
:10434000016301214161F0BD000001400004004013
:1043500000080040000C0040000401400040014003
:10436000004401400048014000180040001C00408B
:104370000020004010B5846842EA032224F47F4400
:104380000A432243826010BD826822F070020A4311
:1043900042F007018160704710B5036A046A24F097
:1043A00001040462846924F0F00444EA021423F056
:1043B0000A020A438461026210BD10B5036A23F049
:1043C000100303628369046A23F4704343EA0232F0
:1043D00024F0A00343EA01118261016210BD10B50F
:1043E000806B0021C185C184FEF75EFE10BD0168AF
:1043F0000C3151E8002F22F4907241E80023002B89
:10440000F5D10168143151E8002F22F0010241E892
:104410000023002BF5D1016B012909D101680C3172
:1044200051E8002F22F0100241E80023002BF5D1C3
:10443000202180F83E1000210163704708B590F8F4
:104440003E10222901D0022008BD82684FF480531B
:104450009A4201D1016921B1816A9A421BD04AB1C5
:104460000AE00268816A5268C2F308020A80816A1F
:10447000891C08E0026972B10268526802F07F028A
:104480000A70816A491C8162C18D491E0904090CA8
:10449000C18503D019E002685268F1E70168CA6873
:1044A00022F02002CA600168CA6822F48072CA60E1
:1044B00001684A6922F001024A61202180F83E1019
:1044C000016B012903D0FEF795FF002008BD0021F4
:1044D000016301680C3151E8002F22F0100241E81D
:1044E0000023002BF5D101680A68D20602D50A68BC
:1044F00049680091818DFEF7D6FDE6E770B5044668
:1045000000680169E26821F44051114301612169A9
:10451000A068E26908436169114308432168CA68D9
:1045200049F20C639A430243CA6020684169A26958
:1045300021F440711143416131492068884202D021
:104540003049884202D1FDF7A1FB01E0FDF78EFB67
:10455000E2690023192164253226B2F5004F626812
:1045600028D0A0FB0101930F9200FBF789FE0146C2
:10457000B0FBF5F06FF01802504301EB800006EB42
:104580000010B0FBF5F000F0F002B1FBF5F002EB2B
:104590000012B1FBF5F06FF01803584301EB8000F7
:1045A00006EB0010B0FBF5F000F00F00216810449E
:1045B000886070BDA0FB010192185B41FBF760FEB3
:1045C0000146B0FBF5F00201B1FBF5F06FF0180306
:1045D000584301EB800006EBC000B0FBF5F000F0A3
:1045E000F80002EB4002B1FBF5F0584301EB80000C
:1045F00006EBC000B0FBF5F000F00700D6E70000C6
:1046000000100140001401402DE9F0419846174682
:104610000E460446069D27E0681C25D02DB1FDF707
:10462000EBF8A0EB0800A8421ED920680C3050E837
:10463000001F21F4D07140E80012002AF5D1206853
:10464000143050E8001F21F0010140E80012002A58
:10465000F5D1202084F83D0084F83E00002084F845
:104660003C000320BDE8F0812068006836EA0000C5
:1046700004D00020B842CFD00020F3E70120F9E7B2
:104680000148FEF713BD000038040020FEE70000DB
:104690000FB4054B10B503A9044A029800F0F6F8D0
:1046A00010BC5DF814FB0000295E000854000020D7
:1046B0000FB4084B10B504A902AA039800F0E6F85D
:1046C000044602A9002000F078FC204610BC5DF8EA
:1046D00014FB0000BB4F0008014B024A00F0D6B8A3
:1046E000295E0008540000200907090E002804DB99
:1046F00000F1E02080F80014704700F00F0000F196
:10470000E02080F8141D704702E008C8121F08C19D
:10471000002AFAD170477047002001E001C1121F42
:10472000002AFBD1704700002DE9FF5FDDE9022080
:10473000010DDDF838B0024318D044F61050A1F254
:10474000FF3141430D140F98012820D0A5EB0B0039
:10475000401C5FEA000A4FF00004474EDFF81C914E
:10476000A046504616D5CAF1000728E00F9801244C
:1047700043A2012808D0002100980F9BC0E9002126
:10478000C0E90243BDE8FF9F6FEA0B01F4E7CBF1FC
:104790000000DEE7074612E0F80707D0224633465E
:1047A00040464946FBF7D7FD8046894622463346B8
:1047B00010461946FBF7CFFD04460E467F10002F2A
:1047C000EAD1DDE90201BAF1000F42464B4602DAB6
:1047D000FBF7C1FD01E0FBF730FE04460E46002268
:1047E000284BFCF711F803D84FF0FF30014607E0E3
:1047F0000022254B20463146FBF746FFFBF7EBFF37
:10480000102409E0002C0ADB0A220023FBF738FD04
:10481000019B30321A55641E50EA0102F2D1641C29
:10482000019AC4F1110314440F9A012A03D0012202
:1048300008430DD10AE0084304D000204FF0110BCB
:104840000F9080E7A3EB0B056D1E0DE05B4504DDCB
:104850004FF0000205F1010504E003DA4FF0000219
:10486000A5F10105002AECD000980F99C0E90231AA
:10487000C0E9004586E70000000024400000F03F4A
:10488000300000000000F0430000E03F2DE9FF4F42
:1048900095B09B468946064600250FE2252877D12C
:1048A00000242746F84A0121059400E0044316F845
:1048B000013F203B01FA03F01042F7D130782A285B
:1048C00011D06FF02F033078A0F13002092A16D8EA
:1048D000059A44F0020402EB820203EB4202104408
:1048E000761C0590EFE759F8042B0592002A03DAAD
:1048F000504244F40054059044F00204761C307891
:104900002E2816D116F8010F44F004042A280DD0E1
:104910006FF02F023078A0F13003092B09D807EB94
:10492000870302EB4303C718761CF3E759F8047BAF
:10493000761C30786C280FD006DC4C2817D06828FD
:104940000DD06A2814D104E0742810D07A280FD131
:104950000DE044F400140AE044F4801401E044F44F
:1049600040147278824202D104F58014761C761CC1
:10497000307866280BD013DC582877D009DC002863
:1049800075D04528F6D04628F4D047281AD19DE1A5
:1049900018E0632835D0642879D0652812D195E1D4
:1049A000702873D008DC6728F1D069286FD06E2892
:1049B0000DD06F2806D1B5E073282CD0752875D09E
:1049C000782874D05A46179990476D1C75E1C4F346
:1049D0000250022809D003280DD0D9F8001004286D
:1049E0000DD00D6009F1040967E1D9F80010EA174C
:1049F000C1E90052F6E7D9F800100D80F2E70D701A
:104A0000F0E719F8041B8DF8001000208DF8010064
:104A1000EA46012003E059F804AB4FF0FF3061078C
:104A20004FF0000102D40DE008F101018846B942BF
:104A30000FDA8045F8DB1AF808100029F4D108E0F5
:104A400008F1010188468142FADB1AF808100029B2
:104A5000F6D105985B46A0EB080721463846179A21
:104A600000F094FA284400EB080507E04DE029E146
:104A70000DE01AF8010B5A4617999047B8F1010852
:104A8000F7D25B4621463846179A13E142E00A22E4
:104A90000092C4F302524FF0000A022A08D059F8DB
:104AA00004CB032A4FEAEC710AD00DE029E02AE09A
:104AB00009F1070121F00702F2E802C1914609E07D
:104AC0000FFA8CFC4FEAEC71042A03D14FFA8CFCEC
:104AD0004FEAEC71002907DA0A460021DCF1000CEC
:104AE00061EB02012D2202E0220504D52B228DF874
:104AF0000420012203E0E20701D02022F7E79046DC
:104B000059E00A2102E010220DE010214FF0000AC6
:104B100000910BE010224FF0000A44F00404082733
:104B2000009203E008224FF0000A0092C4F3025200
:104B3000022A05D059F804CB0021032A08D009E045
:104B400009F1070121F00702F2E802C1914605E0F0
:104B50001FFA8CFC042A01D10CF0FF0C4FF0000866
:104B6000220728D5702806D0009B83F0100353EA53
:104B70000A0305D00EE040228DF80420012208E04F
:104B80005CEA010206D030228DF804208DF8050081
:104B900002229046009B83F0080353EA0A030AD1DD
:104BA0005CEA010201D1620705D530228DF80420AC
:104BB0004FF001087F1E582804D034A003900EA89F
:104BC00002900DE036A0F9E753466046009AFBF7E5
:104BD00057FB84460398825C0298401E0290027044
:104BE0005CEA0100F0D1029806A9081A00F1200A37
:104BF000600702D524F4803400E00127574502DD28
:104C0000A7EB0A0000E0002000EB0A0100900598E5
:104C10004144401A0590E00306D45B462146179AAA
:104C2000059800F0B3F90544002706E001A85A46AC
:104C3000C05D179990476D1C7F1C4745F6DBE0036C
:104C40000CD55B462146179A059800F09FF905445C
:104C500004E030205A46179990476D1C0099481E71
:104C600000900029F5DC08E0029802995A46007885
:104C7000491C0291179990476D1CBAF10001AAF1E5
:104C8000010AF1DC65E1000009280100303132330E
:104C90003435363738396162636465660000000078
:104CA0003031323334353637383941424344454662
:104CB0000000000000F058F90544761C3078002808
:104CC0007FF4ECAD19B02846BDE8F08F620700D440
:104CD000062709F1070222F0070CFCE80223E1464F
:104CE00003F000485FEA080C02D00FF2702C0DE0D0
:104CF0005FEA045C02D50FF2682C07E05FEAC47C2F
:104D000002D00FF2602C01E0AFF2700C4FF0FF38D0
:104D100023F00043CDF850C065280CD006DC4528B0
:104D200009D046281DD047283DD13DE0662818D03F
:104D300067287ED138E00021112F01DB112000E02F
:104D4000781CCDE9000106A90EA8FFF7EDFCDDE90E
:104D50000F010E9A03910021009207F1010A0491BC
:104D60004DE04FF000400097CDE9011006A90EA8D4
:104D7000FFF7DAFCDDE90F0203920E9B1199002286
:104D8000DDF80CA00093049211B9791C00EB010A24
:104D9000B7EB0A0004D4C0F1FF3007F1010A049018
:104DA000AAEB0700019044E0012F00DA012700215F
:104DB000112F01DD112000E03846CDE9000106A9E0
:104DC0000EA8FFF7B1FCDDE90F010E9A0391002157
:104DD00004910092BA4621070CD40399514500DA98
:104DE0008A46BAF1010F05DD009AAAF10101515C72
:104DF000302908D0B84202DA10F1040F06DA012196
:104E0000CDE9011015E0AAF10101E9E7002805DC70
:104E1000049901440491AAEB000102E0411C5145B0
:104E200000DD8A460499401A401C01904FF0004072
:104E30000290200704D40198504501DBCDF804808E
:104E400000208DF84F0002980DF14F07B0F1004F90
:104E500025D02B200E9002984FF0020800280CDA83
:104E6000404202902D200E9007E00A210298FBF7A5
:104E700079FB3031029007F8011DB8F10001A8F16B
:104E80000108F2DC02980028EFD1791E0E98087014
:104E9000307800F0200040F0450007F8020D12A81D
:104EA000C01B00F107081498007800B1012000EB46
:104EB0000A01019801EBE07105984144401A401E37
:104EC0000590E00306D45B462146179A059800F04A
:104ED0005DF805441498007818B15A461799904720
:104EE0006D1CE00324D55B462146179A059800F017
:104EF0004DF805441CE00498002807DBDDE90301B8
:104F0000884203DD0098405C179901E01799302032
:104F10005A469047049805F10105401C04900198F9
:104F2000401E019004D12E205A46179990476D1CBF
:104F3000BAF10001AAF1010ADDDC05E017F8010B66
:104F40005A46179990476D1CB8F10001A8F1010865
:104F5000F4DC5B462146179A0598ABE62D0000006D
:104F60002B000000200000002DE9F0410446002540
:104F70001E461746880404D405E039462020B04771
:104F80006D1C641EF9D52846BDE8F0812DE9F0417D
:104F9000044600251E469046C80301D5302700E090
:104FA0002027880404D505E041463846B0476D1CEB
:104FB000641EF9D52846BDE8F0810A68531C0B60D1
:104FC0001070704786B0002538A000F011FDDFF8A2
:104FD000EC803B4C4FF0FF390122CDF800900023CC
:104FE0001146606A02F0C8FB0128F5D135A000F037
:104FF000FFFCD8F800000168C9438907FBD46FF0B3
:10500000020101602D48FBF71FFFFBF785FA9FEDBA
:105010002F1B53EC112BFBF79EF99FED2E1B53EC2E
:10502000112BFBF70AFA9FED2D1B53EC112BFBF70D
:1050300004FA9FED2C1B53EC112BFBF7FEF99FEDAF
:105040002B1B53EC112BFBF786F9FBF772FA86B298
:10505000324628A104A8FFF72BFB0A2E04D225B95B
:105060000125FEF7CDFF00E000250A278DF804702A
:1050700000208DF8050021A0202602908DF80C60FC
:105080000023642201A9A06B02F02EFD8DF80470AC
:1050900004A88DF8056002908DF80C60002364224E
:1050A00001A9A06B02F020FD96E700005B7461731C
:1050B0006B5F6261745D0D0A000000002C0200202D
:1050C000000000206261740D0A0000000000000072
:1050D00000C8A9400000000000FEAF400000000032
:1050E00000408F406666666666660A400000000003
:1050F00000005940256425250000000042617474B9
:105100006572793A0000000086B000244FF00A0969
:10511000634E614D8DF804904FF020085FA08DF82C
:1051200005408DF80C800290A2462746AB462346E8
:10513000642201A9B06B02F0D7FC2846A9E000BFA9
:105140004FF0FF300090002301220F21F06902F0A0
:1051500013FBC10732D0002FF2D18DF8049060010B
:105160008DF805004FA08DF80C800290002364227A
:1051700001A9B06B02F0B8FC1CB1641EE4B2143D8E
:1051800008E0284601F066FE0446824600EB8400F3
:1051900005EB8005214644A000F02AFC8DF8049020
:1051A00060018DF805003DA08DF80C800290002371
:1051B000642201A9B06B02F097FCC1E7810728D5F2
:1051C000002FBDD18DF8049060018DF8050035A049
:1051D0008DF80C8002900023642201A9B06B02F0CC
:1051E00083FC287C012803D1584601F033FE824617
:1051F000514632A000F0FCFB544506D3604200EB60
:10520000800005EB80050024C4E7641CE4B214357B
:10521000C0E7410717D5002F92D103208DF8100069
:10522000A86828B1054600F0A9FFA868002887D122
:10523000E968002984D0012704A88847394625A0B9
:1052400000F0D6FB7CE70007B7D504208DF81000EE
:1052500017B1E96804A8884768680028ADD004EB56
:10526000840100EB8105FEF7CBFE8DF80490600110
:105270008DF8050009A000278DF80C8002903B46B0
:10528000642201A9B06B02F02FFC287C012894D184
:10529000584600F073FF53E7E80000202D3E000061
:1052A00000000020202000007461626C655F696E60
:1052B0006465783A2025640D0A0000005B6B65790F
:1052C0005D3A746F74616C5F6974656D733A2564DF
:1052D0000D0A00005B656E7465725D3A66756E63FB
:1052E0005F72756E3A25640D0A0000000EB5414CE0
:1052F0003F4F04F1400600BF00F0B6FE0546387887
:10530000C0B1681E10286ED2284600F01FFF054667
:10531000002001F0BDFD014637A000F069FB2846E2
:1053200000F08EFD002001F0B3FD014639A000F031
:105330005FFB58E0207820B93CA000F059FB012029
:105340002070681E10284ED2284600F0FFFE8146CD
:105350000146A2783BA000F04BFB61784FF00A08B1
:1053600008EB41108DF8000020253FA08DF801507A
:105370008DF808500190002364226946A06B02F06A
:10538000B3FB60780023401C607008EB40108DF880
:10539000000036A08DF801508DF80850019064226D
:1053A0006946A06B02F0A0FBA17831A006F801903D
:1053B000491CCAB20F49A270403100F019FBA07815
:1053C000062801D00A280ED1002535540948A570B9
:1053D000657001223349403002F0F2F82564A4F8E8
:1053E000445084F84650012001F088FE84E7000014
:1053F00010020020000000205B6265666F72655D30
:105400007761746572206D61726B3A256C750D0A57
:10541000000000005B61667465725D77617465729F
:10542000206D61726B3A256C750D0A00706C6561B8
:10543000736520696E7075742070617373776F7215
:10544000640D0A005B656C73655D2076616C3A25BE
:10545000632C2070617373776F72645F696E64652B
:10546000783A25640D0A00002A0000005F00000061
:105470006672656572746F735F636C69656E745F85
:1054800070617373776F72643A25732C2070617347
:1054900073776F72645F696E6465783A25640D0A8C
:1054A000000000001C02002070B58AB0FEF704FE68
:1054B000FEF7A6FD012209A9254800F087FC25A0DA
:1054C0000999FFF7E5F80998412808D027A0FFF7C8
:1054D000DFF800F02DFC29A0FFF7DAF80AE01C48FD
:1054E000072202A9223800F071FC07222B4902A8EA
:1054F00000F00CFD01F02AFD0024294D0CE000BF56
:10550000D0E90413CDE90013C368416855F83600AB
:1055100002F028FE641CE4B204EB440605EBC6006E
:105520000289002AECD101F031FD1E4CA06801F087
:10553000BFFFE06801F0BCFF206901F0B9FF6069BE
:1055400001F0B6FF002001F0FFFD0AB070BD0000C1
:1055500022000408666C6173685F666C61675F6255
:1055600075663A2025630D0A0000000066616374C9
:105570006F7279206D6F64650D0A00006661637457
:105580006F7279206D6F646520696E6974696174EA
:105590006520646F6E650D0A000000001C0200208B
:1055A00044860008000000208EB03F4C4FF0FF38CA
:1055B0000122CDF8008000231146206A02F0DCF8B9
:1055C0000128F5D139A000F013FA01223A493B48ED
:1055D000FCF732FE384DA878FBF712FA07466878D8
:1055E000FBF70EFA06462878FBF70AFA024633461E
:1055F00033A109A80097FFF75BF8012234492F482F
:10560000FCF7F8FD324DA878FBF7FAF90746687801
:10561000FBF7F6F90646E878FBF7F2F9024633465F
:105620002CA104A80097FFF743F80A268DF8046020
:1056300000208DF805002CA0202502908DF80C503C
:105640000023642201A9A06B02F04EFA8DF80460D9
:1056500004A88DF8055002908DF80C5000236422A8
:1056600001A9A06B02F040FA8DF8046040208DF88B
:1056700005001FA002908DF80C500023642201A9A0
:10568000A06B02F031FA8DF8046060208DF80500FF
:1056900009A802908DF80C500023642201A9A06B88
:1056A00002F022FA84E700000000002072746320F8
:1056B0007461736B0D0A00007402002088020020E0
:1056C000253032643A253032643A253032640000A5
:1056D000500000203230253032642D253032642DC8
:1056E0002530326400000000446174653A00000017
:1056F00054696D653A0000008CB0284C0A264FF0C2
:10570000FF394FF00008202525A000F071F9012293
:10571000CDF8009000231146A06A02F02DF8012870
:10572000F2D101A800F07CF907460A2000F03EF90A
:10573000002F05DA8DF80C608DF80D801BA022E09B
:105740009DF807309DF806201AA106A8FEF7B0FFC5
:105750009DF805309DF8042018A109A8FEF7A8FFC0
:105760008DF80C6006A88DF80D8004908DF814500B
:105770000023642203A9A06B02F0B6F98DF80C6037
:105780008DF80D5009A804908DF814500023642260
:1057900003A9A06B02F0A8F9B6E700000000002002
:1057A00074656D705F68756D690D0A004552524FE2
:1057B0005200000025642E256443000025642E2538
:1057C000642525001FB50C4C4FF0FF352A4601A972
:1057D000A06B02F0E7FA58B19DF80C0000909DF81C
:1057E00005109DF804000022029B01F0EDFAEDE7A0
:1057F00002A000F0FDF8E9E7000000205B74667489
:105800005D3A2072656365697665642066616C73D4
:10581000650D0A0010B500220260044B02E0D45866
:105820008454521C8A42FAD310BD000000000408C0
:1058300070B5044601F08AFB21780BA0FEF728FF23
:1058400001F0A4FB20780B4D032804D1FEF7D8FB10
:10585000286801F0ABFD2078042804D12868BDE851
:10586000704001F025BE70BD6261743A2025640D60
:105870000A0000000C0000202DE9F0410024094D31
:1058800001264FF47A7704E0C5F8A062012000F009
:105890008DF82046641CB842F6D30020C5F8A0025B
:1058A000BDE8F081008042422DE9F0410024094D1D
:1058B00001264FF4FA7704E0C5F8A062012000F059
:1058C00075F82046641CB842F6D30020C5F8A00243
:1058D000BDE8F081008042422DE9F04117A0FEF7BB
:1058E000D7FE1F4F0026A7F1130400BF00F0BCFB3A
:1058F000411E1029FAD200F029FC0546014619A0E4
:10590000FEF7C6FE61787D54491CC8B26070062857
:10591000ECD11349BE71C91F66700122C81D01F088
:105920004FFE002806DD10A0FEF7B2FEBDE8F041F4
:1059300000F06CBC14A0FEF7ABFED7E7706C65619D
:10594000736520696E70757420746865206F6C646F
:105950002070617373776F72643A0D0A0000000063
:105960002302002025630000706C65617365206967
:105970006E707574206E65772070617373776F72C7
:10598000643A0D0A00000000706C6561736520695F
:105990006E70757420636F7272656374206F6C64CF
:1059A0002070617373776F72640D0A0001F0A6BBFB
:1059B00070B54FF0E02300215D690B4A0B4C126873
:1059C000B2FBF4F49A69444398699042FCD002D245
:1059D000A2EB000202E0A5EB0006324411440246AD
:1059E000A142F1D370BD00006400002040420F00CE
:1059F0000FB44FF0FF3170B5084D05ACA86902F047
:105A0000BBFA21460498FEF767FE00231A461946A2
:105A1000A86902F069F870BC5DF814FB0000002072
:105A20002DE9F047514E4FF400780027C6F800806A
:105A30004FF0010AF760DFF83891C6E901A7054683
:105A400031464846FBF7CEFD4A4CC4F8A4721920F3
:105A5000FFF7ACFFC4F8A4A21E20FFF7A9FFC6E918
:105A60000087F76031464846B760FBF7BBFD00266C
:105A70000AE0761CB6B20120FFF79AFF642E03D32A
:105A80004FF0FF30BDE8F087D4F824020028F0D1B1
:105A9000002609E0761CB6B20120FFF789FF642ECC
:105AA00002D36FF00100EDE7D4F824020028F1D012
:105AB000002609E0761CB6B20120FFF779FF642EBC
:105AC00002D36FF00200DDE7D4F824020028F1D100
:105AD0004FEA00094FF000080726002709E07F1C65
